S01100005333413744776565742E737265631C
S31500000000C064022009860100497D010019860100AD
S3150000001019860100198601001986010000000000FA
S31500000020000000000000000000000000198601002A
S3150000003019860100000000000D26000019270000A7
S31500000040FD1D0100411E0100851E0100C91E0100A3
S315000000500D1F01000D620100F5090100450A0100AE
S31500000060750A0100A50A01001D0A01005D0A0100CA
S315000000708D0A0100F50D0100F937010031C10000BC
S3150000008095C0000069C20000CDC1000065C1000036
S31500000090C9C000009DC2000001C2000099C1000055
S315000000A0FDC00000D1C2000035C200007DDB0000AB
S315000000B005DC000019860100F9DD0000C1DB000047
S315000000C07DDC00001986010019DE0000000000003A
S315000000D0000000000000000000000000000000001A
S315000000E0000000000000000000000000000000000A
S315000000F000000000000000000000000000000000FA
S3150000010000000000000000000000000000000000E9
S31500000400FFFFFFFFDF8FFFFFFCFFFFFFFFFFFFFF89
S31500000410FCFFFFFFFFFFFFFFFCFFFF00FFFFFF00EA
S31500000420FCFFFFFFFFFFFFFFFCFF7F40FFFF7F405A
S31500000430FCFF7F40FFFF7F40FFFFFFFFFFFFFFFF47
S31500000440FFFFFFFFFFFFFFFFFFFFFFFFFFFFFFFFB6
S31500000450FFFFFFFFFFFFFFFFFFFFFFFFFFFFFFFFA6
S31500000460FFFFFFFFFFFFFFFFFFFFFFFFFFFFFFFF96
S31500000470FFFFFFFFFFFFFFFFFFFFFFFFFFFFFFFF86
S31500000480FFFFFFFFFFFFFFFFFFFFFFFFFFFFFFFF76
S31500000490FFFFFFFFFFFFFFFFFFFFFFFFFFFFFFFF66
S315000004A0FFFFFFFFFFFFFFFFFFFFFFFFFFFFFFFF56
S315000004B0FFFFFFFFFFFFFFFFFFFFFFFFFFFFFFFF46
S315000004C0FFFFFFFFFFFFFFFFFFFFFFFFFFFFFFFF36
S315000004D0FFFFFFFFFFFFFFFFFFFFFFFFFFFFFFFF26
S315000004E0FFFFFFFFFFFFFFFFFFFFFFFFFFFFFFFF16
S315000004F0FFFFFFFFFFFFFFFFFFFFFFFFFFFFFFFF06
S3150000050010B5054C237833B9044B13B10448AFF347
S3150000051000800123237010BD880D0020000000001C
S3150000052060210400084B10B51BB108480849AFF319
S3150000053000800848036803B910BD074B002BFBD0A9
S31500000540BDE81040184700BF00000000602104000D
S315000005508C0D00206C0D00200000000090B591B0BD
S3150000056002AF786039603B681B687B637B6B5A68B7
S315000005707B681A607B681B683B633B6B1B68012BBF
S3150000058006D108203F498A2217F0B6FF082374E0F7
S315000005903B6B1B68022B06D108203A498B2217F0C9
S315000005A0ABFF082369E03B6B1B68032B06D10820D1
S315000005B034498C2217F0A0FF08235EE03B6B2833FA
S315000005C0184631490022342306F058FD3B6B5C3354
S315000005D018462E490022342306F050FD3B6B90331B
S315000005E018462949242206F029FC3B6BB4331846E9
S315000005F02649242206F022FC3B6B03F1D8023B6B12
S3150000060003F588744FF4FA73009338230193104668
S315000006101E490122234606F06DFE7B6B1B685B6854
S3150000062007F10C0210461946202235F021F8184B26
S315000006303B627B687B627B6B1B689B681B683A6BC3
S3150000064002F1080107F10C020846114698470346D5
S31500000650FB85FB8D002B07D0FB8D18460949A4228C
S3150000066017F04AFFFB8D08E03B6B01221A607B6B9B
S315000006701B689A683B6B5A60002318463C37BD4698
S3150000068090BD00BFD4DA0300E4DA0300F0DA030019
S31500000690890B000080B584B000AF78600023FB8131
S315000006A07B681B68BB60BB685B685B69BA680832BD
S315000006B0104698470346FB81BB682833184606F068
S315000006C067FDBB685C33184606F062FDBB68903375
S315000006D0184606F031FCBB68B433184606F02CFC0D
S315000006E0BB6800221A60FB8918461037BD4680BDDC
S315000006F090B58DB002AFF860B9607A603B600023B8
S315000007003B620023FB847B687B61FB681B68FB61A3
S31500000710FB691B68002B06D108207049F52217F0EB
S31500000720EBFE0823D6E0FB695C331846396806F011
S315000007305BFD38623B6A002B06D014206749F9221C
S3150000074017F0DAFE1423C5E0FB6902221A6007F1EE
S315000007501403F869B9687A6800F0C6F90346FB84A1
S31500000760FB8C002B10D0FB695C33184606F088FD25
S31500000770FB8C002B08D0FB8C184658494FF481722D
S3150000078017F0BAFEFB8CA5E07B69002B22D0FB6933
S315000007905B685B68FA6902F108007A6979688A1A07
S315000007A0B96811447A6998470346FB84FB8C002B91
S315000007B010D0FB695C33184606F062FDFB8C002BFB
S315000007C008D0FB8C184645494FF4867217F094FE04
S315000007D0FB8C7FE066E0FB6903F1B40207F11804C5
S315000007E03B6800931046FD210122234606F0D0FB0C
S315000007F038623B6A002B0ED06423FB84FB695C33B2
S31500000800184606F03DFD142034494FF48D7217F05A
S3150000081073FE14235EE0BB6903F04003002B01D096
S31500000820CB23FB84BB6903F02003002B01D00C23F0
S31500000830FB84BB6903F00803002B01D0C823FB84AB
S31500000840BB6903F00403002B01D0CA23FB84BB69F8
S3150000085003F01003002B01D0C923FB84FB8C002B73
S315000008600DD0FB695C33184606F00AFDFB8C184672
S315000008701A494FF49B7217F03FFEFB8C2AE0BB69C6
S3150000088003F00103002B01D000237B61BB6903F059
S315000008908003002B06D007F11403F869B9687A685B
S315000008A000F022F97B69002B95D1FB695C33184671
S315000008B006F0E6FC38623B6A002B07D06420074945
S315000008C04FF4A47217F018FE642303E0FB690122BB
S315000008D01A60FB8C18462C37BD4690BDD4DA03004F
S315000008E090B58BB002AFF860B9607A603B600023C8
S315000008F0BB610023FB83FB681B687B617B691B680C
S31500000900002B07D10820314940F26D1217F0F4FD93
S31500000910082357E07B6928331846396806F064FCDB
S31500000920B861BB69002B07D01420284940F2711228
S3150000093017F0E2FD142345E07B6903221A607B6908
S3150000094003F1900207F110040023009310460221E0
S315000009500122234606F01CFB7B695B689B687A696B
S3150000096008321046B9687A6898470346FB83FB8BC2
S31500000970002B12D17B6903F1900207F110043B684A
S315000009800093104602210122234606F001FBB861BE
S31500000990BB69002B01D06423FB837B69283318468F
S315000009A006F06EFCFB8B002B08D0FB8B1846074924
S315000009B040F2891217F0A0FDFB8B03E07B69012250
S315000009C01A60FB8B18462437BD4690BDD4DA030067
S315000009D080B586B000AFF8600B467A60FB72FB68A4
S315000009E01B687B617B691B68012B07D008201E49A9
S315000009F04FF4D17217F080FD082330E0FB7A002B0C
S31500000A0002D0FB7A022B11D17B692833184679680C
S31500000A1006F0EAFB38613B69002B07D01420124927
S31500000A204FF4D47217F068FD142318E0FB7A012BFB
S31500000A3002D0FB7A022B11D17B695C3318467968A8
S31500000A4006F0D2FB38613B69002B07D0142006491B
S31500000A504FF4D77217F050FD142300E00023184618
S31500000A601837BD4680BD00BFD4DA030080B584B018
S31500000A7000AF78600B46FB707B681B68FB60FB6809
S31500000A801B68012B07D008200D4940F2C51217F04C
S31500000A9033FD082310E0FB78002B04D1FB682833D4
S31500000AA0184606F0EDFBFB78012B04D1FB685C339E
S31500000AB0184606F0E5FB002318461037BD4680BDF4
S31500000AC0D4DA030080B483B000AF7860054B1A68AF
S31500000AD07B681A60002318460C37BD465DF8047B18
S31500000AE0704700BFB4DA030080B586B000AFF86087
S31500000AF0B9607A603B6000237B6100233B613B6801
S31500000B001B68002B07D1FB68B433184680210022EE
S31500000B1006F086FA78611BE0FB6803F1D80207F15C
S31500000B20100310461946002206F0DAFC78617B694C
S31500000B30002B0DD13B681B687A68D31ABA68134438
S31500000B403A69D2B21A703B681B685A1E3B681A6033
S31500000B507B69002B03D13B681B68002BDCD17B69CA
S31500000B60002B0AD07B690A2B07D0642005494FF475
S31500000B70007217F0C1FC642300E000231846183702
S31500000B80BD4680BDD4DA030080B586B000AF78607C
S31500000B907B68DB683B613B691B68FB60FB689033E5
S31500000BA07B617B681B7903F00203DBB2002B03D069
S31500000BB0FB6890337B6112E0FB68B4337B617B6832
S31500000BC01B79DBB25BB2002B09DAFB6803F1D802B2
S31500000BD07B68083310461946002206F0BDFC7B6888
S31500000BE01B7978691946002206F01AFA1837BD46AD
S31500000BF080BD00BF90B58FB008AF786039607B6864
S31500000C00002B01D10123FBE03B68002B01D101231E
S31500000C10F6E03B681B69002B01D10123F0E03B683D
S31500000C201B697B617B699B683B617B683A69C3F89A
S31500000C3028217B699B68002B01D10123E0E07B69B9
S31500000C401B68002B01D10123DAE07B695B68002B6E
S31500000C5001D10123D4E07B691B69002B01D101235B
S31500000C60CEE07B691A683B695A607B695A683B69C2
S31500000C709A603B681A887B689A803B685A887B68CA
S31500000C80DA803B68DA897B68A3F82C217B699A892C
S31500000C903B691A807B691A693B69C3F80C243B6877
S31500000CA09A687B689A603B681A7B7B681A737B68D4
S31500000CB000221A777B684FF6FF721A837B684FF61D
S31500000CC0FF725A837B6820331846002101223423A1
S31500000CD006F0D4F97B6820331846002106F084FA22
S31500000CE0F860FB68002B06D008204749A12217F0C0
S31500000CF003FC082384E03B695B689B681B683A69D0
S31500000D00526811687A69126852680846114698470F
S31500000D1003467B817B89002B07D07B8918463A499D
S31500000D20A52217F0E9FB7B896AE0786800F046F9AE
S31500000D3003467B817B89002B07D07B891846324985
S31500000D40A92217F0D9FB7B895AE03B699B689B680F
S31500000D501B683A69926811687A695268526808464F
S31500000D601146984703467B817B89002B07D07B89F8
S31500000D7018462549AD2217F0BFFB7B8940E07B680A
S31500000D802033184606F07CFA7B6854331846002157
S31500000D90242206F053F8FB68002B06D064201A497B
S31500000DA0B42217F0A9FB64232AE07B6803F17800DC
S31500000DB07C683B6903F10C013B685A683B685B68D9
S31500000DC000914FF4806101910292039300230493F2
S31500000DD001230593B02306930C490D4A234606F0DA
S31500000DE021FDF860FB68002B06D064200649C1226D
S31500000DF017F082FB642303E07B68064A1A6000232F
S31500000E0018461C37BD4690BD18DB03002CDB0300DB
S31500000E10591100004332495480B58AB000AFF860DA
S31500000E20B9607A603B60FB68002B01D1012358E072
S31500000E30BB68002B01D1012353E07B68002B01D155
S31500000E4001234EE0FB681B68284A934206D0072020
S31500000E502749DE2217F050FB072342E00023FB84DC
S31500000E60BB681B881A467B689B881BB2D31ABA6874
S31500000E70128811467A68928812B28A1A02FB03F324
S31500000E803B62BB685B881A467B68DB881BB2D31A59
S31500000E90BA68528811467A68D28812B28A1A02FB58
S31500000EA003F3FB613A6AFB691344BB61BB689B8829
S31500000EB01A46BB689B8803FB02F37B61BA697B69B0
S31500000EC09A4202DD4FF49663FB84FB8C002B07D01D
S31500000ED0FB8C18460649F02217F00EFBFB8C00E04F
S31500000EE0002318462837BD4680BD00BF433249540B
S31500000EF018DB030080B584B000AF78607B68002BF8
S31500000F0001D1012320E07B681B68114A934207D078
S31500000F10072010494FF4807217F0EEFA072313E00A
S31500000F207B68543318460221002206F079F8F860EF
S31500000F30FB68002B07D00320064940F2051217F084
S31500000F40DBFA032300E0002318461037BD4680BDB8
S31500000F504332495418DB030080B584B000AF786093
S31500000F607B68002B01D1012320E07B681B68114AB6
S31500000F70934207D00720104940F2171217F0BCFA27
S31500000F80072313E07B68543318460121002206F03C
S31500000F9047F8F860FB68002B07D0032006494FF49A
S31500000FA08E7217F0A9FA032300E0002318461037C3
S31500000FB0BD4680BD4332495418DB030080B584B07A
S31500000FC000AF78607B68002B01D1012321E07B68AC
S31500000FD0D3F82831FB607B6820331846002106F0E1
S31500000FE003F9B860BB68002B07D008200B494FF403
S31500000FF09A7217F081FA08230BE0FB68D3F80C34D9
S315000010005B68786898477B682033184606F038F99D
S31500001010002318461037BD4680BD00BF18DB03000D
S3150000102080B588B000AF78607B68002B01D10123C2
S315000010306DE07B681B68384A934207D00720374922
S315000010404FF4A67217F058FA072360E07B68D3F8CE
S315000010502831FB61FB695B689B68BB61FB695B6868
S315000010601B687B61FB699B681B683B61FB699B682E
S315000010709B68FB60FB68DB683869984703467B81A1
S315000010807B89002B08D07B89184624494FF4AC7223
S3150000109017F032FA7B893AE0BB695B687869984752
S315000010A003467B817B89002B08D07B8918461B4928
S315000010B04FF4AE7217F020FA7B8928E07B689B68B4
S315000010C0002B0CD07B689B689B68DB687A6892680B
S315000010D011687A68126908461146022298477B68A9
S315000010E05433184605F028FF7B682033184606F06F
S315000010F04FF87B687833184606F014FD7B68783322
S31500001100184606F069FC7B6800221A600023184620
S315000011102037BD4680BD00BF4332495418DB03006B
S3150000112080B483B000AF78607B68002B01D10123C7
S315000011300CE07B6801221A707B6801225A707B687A
S3150000114001229A707B680122DA70002318460C3758
S31500001150BD465DF8047B704790B591B002AF7860EC
S315000011607B68FB62FB6AD3F82831BB6205F07EF927
S315000011707863FB6A00221A6114E000233B76FB6A5F
S315000011809B689B689C68FB6A9B681968FB6A03F10D
S31500001190100207F11803084611461A460A23A0470B
S315000011A00346FB84FB6A1B69002BE6D0FB6A1B69BE
S315000011B000221A70FB6A1B6901225A80FB6A1B69AE
S315000011C0FA6A127B5A700023FB61FB6A03F1540230
S315000011D007F11C0400230093104603210122234635
S315000011E005F0D6FEFB6903F00103002B10D0FB6A65
S315000011F003F1540207F11C044FF0FF33009310462D
S3150000120002210122234605F0C3FEF86AFFF7D6FE47
S31500001210BB6AD3F80C341B68FA6A1269F86A11467D
S3150000122098470346FB84FB8C002B16D1FB6A9B88F0
S315000012301A46FB6A1B699B881BB29A4208DBFB6A4B
S31500001240DB881A46FB6A1B69DB881BB29A4211DAF5
S31500001250FB6A1B6900221A720CE0FB8C652B05D118
S31500001260FB6A7833184606F03FFC03E0FB6A1B690D
S3150000127000221A72012387F83330FB6A1B691B7A36
S31500001280012B09D0FB6A1B691B7A022B04D0FB6A6F
S315000012901B691B7A002B12D105F0E8F83862FB6A4D
S315000012A0B3F82C316422B2FBF3F39BB21A467B6B84
S315000012B01A443B6A9A4202D3002387F8333097F8E0
S315000012C03330002B21D005F0D1F8786307F10C03F9
S315000012D000221A60043300221A60043300221A60C6
S315000012E00433FB6A9B689B681C69FB6A9B681868E9
S315000012F0FB6A196907F10C02002300930023A0473B
S315000013000346FB84FB6A00221A6135E790B587B075
S3150000131000AFF860B9607A603B6000233B6112E081
S31500001320FB689C68B86879683A680023A04703465A
S31500001330FB82022004F0B0FCFB8A002B00D105E002
S315000013403B6901333B613B69092BE9DDFB8A1846A2
S315000013501C37BD4690BD00BF90B587B000AFF860A2
S31500001360B9607A603B6000233B6113E0FB68DC6890
S3150000137097F82830B86879683A68A0470346FB8230
S31500001380022004F089FCFB8A002B00D105E03B69B2
S3150000139001333B613B69092BE8DDFB8A18461C37A4
S315000013A0BD4690BD90B587B000AFF860B9607A6071
S315000013B03B6000233B6121E0FB68DC68B868796824
S315000013C03A680123A0470346FB82022004F064FC2E
S315000013D0FB8A002B0FD1FB689C68B86879683A686D
S315000013E00023A0470346FB82022004F055FCFB8A3B
S315000013F0002B00D105E03B6901333B613B69092BBA
S31500001400DADDFB8A18461C37BD4690BD80B58AB02A
S3150000141000AF786039607B68D3F828317B627B6ADD
S315000014205B681B683B627B6A9B681B68FB617B6A27
S315000014305B689B68BB617B6A9B689B687B617B6919
S315000014405B68F8694FF0FF31984703467B827B8AD9
S31500001450002B08D07B8A1846634940F2051217F024
S315000014604BF87B8ABCE03B6800229A803B680022EE
S31500001470DA803B6803221A726323FB7207F10B03BF
S31500001480B869396A1A460123FFF78CFF03467B8247
S315000014907B8A002B0BD0BB691B69386A984764208E
S315000014A0514940F2191217F027F8642398E0FB7AA5
S315000014B003F00403002B02D03B6804221A7207F1E2
S315000014C00C03B869396A1A460423FFF71FFF03465F
S315000014D07B827B8A002B0BD0BB691B69386A9847D5
S315000014E0642041494FF4937217F006F8642377E0BD
S315000014F07B689B881A463B7BC3F30303DBB21B0264
S3150000150099B27B7B9BB20B439BB21BB203FB02F3EC
S31500001510364A82FB03121A44D212DB17D31A9AB246
S315000015203B689A807B68DB881A46BB7BC3F3030360
S31500001530DBB21B0299B2FB7B9BB20B439BB21BB285
S3150000154003FB02F3294A82FB03121A44D212DB1769
S31500001550D31A9AB23B68DA807B681B7F012B03D0D3
S315000015607B681B7F022B02D17B6803221A777B687C
S315000015701B7F032B1AD13B681B7A032B16D17B6882
S315000015801A8B3B689B8812B21BB29A4207D17B68C2
S315000015905A8B3B68DB8812B21BB29A4203D03B6877
S315000015A002221A7202E03B6801221A723B681A7A1A
S315000015B07B681A773B681B7A042B08D17B681A8BE9
S315000015C03B689A807B685A8B3B68DA8007E03B6809
S315000015D09A887B681A833B68DA887B685A837B8A99
S315000015E018462837BD4680BD48DB030081000880C9
S315000015F080B58AB002AF78607B68D3F82831FB618A
S31500001600FB695B689B68BB61FB695B681B687B6108
S315000016105C4BDB69FA691288104600219847022064
S3150000162004F03AFBBB691B697869984703467B82DD
S31500001630544BDB69FA69128810460121984702204B
S3150000164004F02AFB00233B7374237B732723BB73AD
S315000016500423FB7307F10C0200230093B869796930
S315000016600423FFF779FE03467B827B8A002B0BD08F
S31500001670BB691B6978699847642043494FF4BB727C
S3150000168016F03AFF642379E004233B73C0237B738F
S3150000169007F10C0200230093B86979690223FFF76A
S315000016A05BFE03467B827B8A002B0BD0BB691B69E2
S315000016B078699847642034494FF4C17216F01CFFCC
S315000016C064235BE022233B730C237B7307F10C023C
S315000016D000230093B86979690223FFF73DFE0346AC
S315000016E07B827B8A002B0BD0BB691B697869984784
S315000016F0642025494FF4C67216F0FEFE64233DE0D1
S315000017000B233B7300237B7307F10C02002300932A
S31500001710B86979690223FFF71FFE03467B827B8A3D
S31500001720002B0BD0BB691B69786998476420164962
S315000017304FF4CB7216F0E0FE64231FE0E0233B7308
S3150000174007F10C0200230093B86979690123FFF7BA
S3150000175003FE03467B827B8A002B0BD0BB691B6989
S31500001760786998476420084940F29F1216F0C4FE33
S31500001770642303E07B6805221A7700231846203786
S31500001780BD4680BDBCDC030048DB030080B584B0E9
S3150000179000AF786039607B68002B01D1012349E0F6
S315000017A0386800F087FB03467B817B89002B07D0D6
S315000017B07B8918462149952216F09EFE7B8939E0E1
S315000017C07B6893F83E30012B06D108201B499922ED
S315000017D016F092FE08232DE07868396800F0BEFB0B
S315000017E003467B817B89002B07D07B8918461349EA
S315000017F09D2216F081FE7B891CE03B68DA687B68D7
S315000018001A637B6800229A873B68DB68FB6008E006
S315000018107B689B8F01339AB27B689A87FB68043397
S31500001820FB60FB681B68002BF2D17B68012283F802
S315000018303E20002318461037BD4680BD80DB0300DE
S3150000184080B588B000AF78607B68002B01D101239A
S3150000185055E07B6893F83E30012B06D007202A49D5
S31500001860BC2216F049FE072349E07B681B6BFB612F
S315000018700023BB6133E0FB691B68002B08D14FF4E2
S31500001880FB602149C52216F037FE4FF4FB6336E0B4
S3150000189000237B61FB691B685B683B6114E03B6965
S315000018A01A1D3A611B68FB60FB681B68184605F049
S315000018B0BDFDB860BB68002B06D064201249D52256
S315000018C016F01AFE64231AE07B695A1C7A61FA69DB
S315000018D0126852889342E2D3FB690433FB61BB6909
S315000018E05A1CBA617A68928F9342C4D37B681846B1
S315000018F005F02EF97B68002283F83E200023184667
S315000019002037BD4680BD00BF80DB030080B588B0B0
S3150000191000AFF860B9607A603B6000237B61FB68CA
S31500001920002B01D1012361E0BB68002B01D101230B
S315000019305CE0FB6893F83E30012B06D007202D496A
S31500001940FB2216F0D9FD072350E0BB6800221A607F
S31500001950FA6807F11403104619463A6805F028F8A4
S31500001960F861FB69002B20D1FB685B6B7A69134435
S31500001970BB61B86900210C2233F078FFBA69937A0B
S3150000198043F0800393727A69BB681A60BB681B6870
S3150000199000221A607B681B78002B05D0BA69937AFF
S315000019A043F00103937220E01FE0FB69102B09D17D
S315000019B04FF4FA600F4940F21D1216F09DFD4FF4E8
S315000019C0FA6313E0FB69042B07D11420094940F29E
S315000019D0211216F091FD142308E06420054940F217
S315000019E0251216F089FD642300E0002318462037EF
S315000019F0BD4680BD80DB030080B58CB000AFF860CB
S31500001A00B9601346FB71FB68002B01D10123DDE0B1
S31500001A10BB68002B01D10123D8E0FB6893F83E3068
S31500001A20012B07D007206B494FF49D7216F064FD19
S31500001A300723CBE0BB68FA68526904329B1AFA683E
S31500001A40526B1032B3FBF2F102FB01F29B1A002B30
S31500001A5009D040F2D1705F494FF4A17216F04CFDE7
S31500001A6040F2D173B2E0FB685A6BBB6813447B62E9
S31500001A70002387F82F30002387F82E30002387F8BD
S31500001A802D3000F043FB38627B6A9B7A23F07F039C
S31500001A90DBB2002B0CD1386A00F04CFB40F2D97057
S31500001AA04C494FF4AA7216F027FD40F2D9738DE027
S31500001AB0FB7903F00403DBB2002B04D07A6A937A35
S31500001AC043F0020393727B6A5B68FB61FB7903F068
S31500001AD00103DBB2002B20D07B6A1B68002B10D0E1
S31500001AE0012387F82F307B6A9B7A03F00203DBB26F
S31500001AF0002B14BF0123002387F82D307B6A1B6857
S31500001B00BB62012387F82E307B6A00221A817A6A2B
S31500001B10937A6FF3000393722CE07B6A1B89002B88
S31500001B2005D07B6A1B89013B9AB27B6A1A817B6A64
S31500001B301B89002B1ED17B6A1B68002B10D001234A
S31500001B4087F82F307B6A9B7A03F00203DBB2002B07
S31500001B5014BF0123002387F82D307B6A1B68BB6204
S31500001B607B6A9B7A03F00103DBB2002B02D10123CF
S31500001B7087F82E3097F82E30002B0FD0BB68002246
S31500001B801A607A6A937A6FF3410393727A6A937A48
S31500001B906FF3C7139372B86805F006F8386A00F059
S31500001BA0C9FA97F82F30002B0FD097F82D30002B5D
S31500001BB002D001233B7501E000233B75FB69BB6145
S31500001BC007F11402BB6A10469847002318463037BF
S31500001BD0BD4680BD80DB030080B592B000AFF860E3
S31500001BE0B9607A603B60FB68002B01D10123ECE011
S31500001BF0BB68002B01D10123E7E0FB6893F83E3078
S31500001C00012B07D0072073494FF4E57216F074FCD8
S31500001C100723DAE0BA68FB685B6904339A4218D096
S31500001C20BB68FA68526904329B1AFA68526B103222
S31500001C30B3FBF2F102FB01F29B1A002B09D040F232
S31500001C40D170644940F2D51216F056FC40F2D173B9
S31500001C50BBE0FB681B6B7B64002387F843300023E3
S31500001C60FB630023BB637B68002B09D07B685B6842
S31500001C70BB637B689B68FB637B681B7887F8433094
S31500001C80F868B9687A6C00F0F5F90346FB84FB8CBA
S31500001C90002B09D140F2D5704E4940F2EB1216F0F6
S31500001CA02BFC40F2D57390E0FB685A6BBB6813447B
S31500001CB03B6200F02BFAF8613B6A9B7A23F07F03C4
S31500001CC0DBB2002B0CD1F86900F034FA40F2D9707F
S31500001CD040494FF4FB7216F00FFC40F2D97374E0E2
S31500001CE03B6AFA8C1A813B6ABA6B1A603B6AFA6BDA
S31500001CF05A60F86900F01EFA0023FB8600233B6356
S31500001D005BE07B6C1B68002B09D14FF4FB6031490B
S31500001D1040F2072216F0F0FB4FF4FB6355E0BB6878
S31500001D201A787B6C1B681B789A4243D10023FB62AE
S31500001D307B6C1B685B68BB6234E0BB6A1A1DBA62C7
S31500001D401B68BB61BB685A78BB691B799A4229D369
S31500001D50BB685A78BB695B799A4223D8BB691A6813
S31500001D6097F843301046B9681A463B6D00F052F9B1
S31500001D700346FB82FB8A002B14D000F0C7F9F861FA
S31500001D803B6A1B89013B9AB23B6A1A81F86900F0EB
S31500001D90D1F93B68002B03D0BB691A683B681A600F
S31500001DA0FB8AFB86FB6A5A1CFA627A6C12685288B6
S31500001DB09342C2D37B6C04337B643B6B5A1C3A63FD
S31500001DC0FA68928F93429CD3FB8E18464837BD46DD
S31500001DD080BD00BF80DB030080B586B000AFF86031
S31500001DE0B9607A603B60FB68002B01D101233EE0BD
S31500001DF07B68002B01D1012339E0FB6893F83E3064
S31500001E00012B07D007201C494FF4137216F074FB00
S31500001E1007232CE07B6800221A60B86879683A6864
S31500001E2005F05EFB78617B69002B01D100231EE083
S31500001E307B690A2B09D140F2D6700F494FF417720D
S31500001E4016F05AFB40F2D67311E07B69042B07D0DB
S31500001E50142009494FF4187216F04EFB142306E0BD
S31500001E60642005494FF4197216F046FB64231846A0
S31500001E701837BD4680BD00BF80DB030080B483B049
S31500001E8000AF78607B68002B01D101230CE07B68F2
S31500001E9001221A707B6801225A707B6801229A70AF
S31500001EA07B680122DA70002318460C37BD465DF8C0
S31500001EB0047B704780B582B000AF78607B68002BEA
S31500001EC001D1012343E07B681B68002B01D101236C
S31500001ED03DE07B685A687B689B6810339A4209D854
S31500001EE040F2D2701C4940F2912216F005FB40F2F6
S31500001EF0D2732CE07B689B68032B09D840F2D37021
S31500001F00154940F2922216F0F7FA40F2D3731EE01A
S31500001F107B689B6803F00303002B09D040F2D37063
S31500001F200D4940F2932216F0E7FA40F2D3730EE021
S31500001F307B68DB68002B09D14FF4FB6006494FF440
S31500001F40257216F0D9FA4FF4FB6300E00023184619
S31500001F500837BD4680BD00BF80DB030090B589B061
S31500001F6002AF786039603B681B687B613B685B68E1
S31500001F703B617B6903F00303002B08D07B6923F0E8
S31500001F8003037B613B6903339B089B003B617B69D1
S31500001F90184600213A6933F069FC3B689B681033A8
S31500001FA03A69B2FBF3F3FB60FB68002B09D140F200
S31500001FB0D270174940F2B72216F09EFA40F2D27359
S31500001FC021E03B689A687B685A637B68FA689A6383
S31500001FD078683B6819693B689B6803F10C027C6969
S31500001FE03B69009330230193234604F01DFD03460D
S31500001FF0002B07D06420064940F2C52216F07CFA71
S31500002000642300E0002318461C37BD4690BD00BF80
S3150000201080DB030080B586B000AFF860B9603B6036
S315000020201346FB71FB79012B08D107F10803F86809
S3150000203019463A6805F018FA386107E007F108030F
S31500002040F86819463A6805F087FA38613B69002B4B
S3150000205002D10023FB8208E03B690B2B03D140F23F
S31500002060D773FB8201E06423FB82FB8A184618378C
S31500002070BD4680BD80B489B000AFF860B9607A60B3
S315000020800023FB830023BB8332E07B681B68002BA5
S3150000209001D1BB8B34E0BB681A787B681B681B7860
S315000020A09A4222D10023BB617B681B685B687B6117
S315000020B013E07B691A1D7A611B683B61BB685A781D
S315000020C03B691B799A4208D3BB685A783B695B79AE
S315000020D09A4202D8BB8B0133BB83BB695A1CBA61D7
S315000020E07A68126852889342E3D37B6804337B6034
S315000020F0FB8B5A1CFA83FA68928F9342C5D3BB8B2B
S3150000210018462437BD465DF8047B704780B485B019
S3150000211000AFEFF31183BB60BB68FB6010237B60ED
S315000021207B6883F31188FB6818461437BD465DF853
S31500002130047B704780B485B000AF78607B68FB6035
S31500002140FB6883F311881437BD465DF8047B70473E
S3150000215080B58AB000AF786039607B68002B01D10A
S31500002160012388E03B68002B01D1012383E03B6813
S315000021701B689B68002B01D101237CE03B681B6830
S315000021809B681B68002B01D1012374E03B681B6828
S315000021905B68002B01D101236DE07B681B68384A20
S315000021A0934206D1082037497B2216F0A5F9082369
S315000021B061E03B681B689A687B685A657B683833C0
S315000021C01846002100221C2305F028FA7B680433F8
S315000021D0184600210122342304F050FF7B680433A3
S315000021E01846002105F000F878627B6A002B01D0C2
S315000021F0082340E03B681B685B6807F10C02104649
S315000022001946142233F034FA3B681B79002B08D1A7
S3150000221000237B610023BB617B68002283F8642076
S3150000222007E0194B7B617B68BB617B68012283F801
S3150000223064203B681B689B681B687A6802F158013A
S3150000224007F10C0208461146984703467B847B8CAF
S31500002250002B07D07B8C18460A49A12216F04CF9B0
S315000022607B8C08E07B680433184605F009F87B6828
S31500002270034A1A60002318462837BD4680BD00BFB2
S315000022804E45504FA0DB03000924000080B584B002
S3150000229000AF786039607B68002B01D1012327E00D
S315000022A07B681B68144A934206D007201349BA225A
S315000022B016F022F907231BE07B6838331846396885
S315000022C005F05EFAF860FB680D2B06D114200B4969
S315000022D0C02216F011F914230AE0FB68002B06D081
S315000022E065200649C12216F007F9652300E00023A0
S315000022F018461037BD4680BD4E45504FA0DB030043
S3150000230080B483B000AF78607B68002B01D10123D5
S3150000231004E0054B1A687B681A60002318460C37E0
S31500002320BD465DF8047B70478CDB030080B584B046
S3150000233000AF78607B68002B01D101235BE07B68EE
S315000023405B6D002B01D1012355E07B681B682C4A8D
S31500002350934206D007202B49E52216F0CDF8072335
S3150000236049E07B685B6D9B69002B06D106202549F9
S31500002370E62216F0C1F806233DE07B6804331846D2
S31500002380002104F031FFF860FB68002B06D008201E
S315000023901C49EB2216F0B0F808232CE07B685B6D35
S315000023A09B697A6858321046984703467B817B8939
S315000023B0072B02D07B89002B11D17B6800221A6083
S315000023C07B680433184604F05BFF7B6804331846C9
S315000023D004F0DEFE7B683833184605F0A1F97B89E8
S315000023E0002B07D07B8918460649FC2216F084F894
S315000023F07B8900E0002318461037BD4680BD00BF2C
S315000024004E45504FA0DB030080B584B000AF786026
S315000024107B68002B12D07B681B68002B0ED07B6874
S315000024201B68FB60FB681B68064A934200D005E008
S31500002430FB6838331846012105F0CAF81037BD4647
S3150000244080BD00BF4E45504F80B483B000AF0346F9
S315000024503960FB7197F90730002B0BDA0D49FB79D0
S3150000246003F00F03043B3A68D2B21201D2B20B4416
S315000024701A7609E0084997F907303A68D2B212018C
S31500002480D2B20B4483F800230C37BD465DF8047BBB
S31500002490704700BF00ED00E000E100E080B582B0CB
S315000024A000AF78607B68013BB3F1807F01D30123E5
S315000024B00FE00A4A7B68013B53604FF0FF300F2163
S315000024C0FFF7C2FF054B00229A60044B07221A60F1
S315000024D0002318460837BD4680BD00BF10E000E067
S315000024E080B500AF72B6134B134A1A60134B1B68C4
S315000024F0134A1360134A134B1B6843F0010313601E
S31500002500114B1B68114AA2FB03235B091846FFF710
S31500002510C5FF6FF00400FF21FFF796FF6FF0010083
S31500002520FF21FFF791FF4FF0FF304021FFF78CFFAF
S3150000253080BD00BF707D0120C4BC022000000000E9
S31500002540207E0120001000E0C07F01201F85EB5196
S3150000255080B487B000AF7860EFF310833B613B69CE
S315000025607B617B68FB60FB6883F310887B69184698
S315000025701C37BD465DF8047B704700BF90B482B03F
S3150000258000AF1C4B00221A601B4B00229A801A4B8C
S3150000259000229A82184B00221A80174B00221A82B8
S315000025A0154B164A9A60144B154ADA60124B134AB9
S315000025B09A61114B124ADA61EFF308831C462346EF
S315000025C07B607B6883F309880E4A0E4BB3F8203193
S315000025D09BB243F480539BB2A2F82031064B0122F2
S315000025E09A80054B01229A8262B6074B4FF08052C1
S315000025F05A60FEE7247E0120000D0040C044022000
S31500002600C0BC02200060004000ED00E03D4B1B68AE
S31500002610002B29D0EFF3098CACF1200C8CF3098840
S315000026200CF1200C2CE9F00F1EF0100F07D1ACF1C5
S31500002630400C8CF309880CF1400C2CED108A314BC0
S315000026401B687246C3F890202E4B1B6862469A6040
S315000026502D4B1B68002B07D02A4B1B682A4A126891
S315000026609A61294B00221A6072B6284B1B68002B10
S3150000267013D172B6254B1B681B46224A1360214BA9
S315000026801B68002B04D000BF214B1B225A6008E0B8
S3150000269062B630BFBFF36F8FEBE71C4B1B68194A5E
S315000026A0136062B6174B1B685A6801325A60154BA5
S315000026B01B689B69144A1360164B00229A82154ABE
S315000026C0104B1B68DB689361124A0E4B1B681B6933
S315000026D043F00303D3610B4B1B68D3F890309E463F
S315000026E0084B1B689B689C461EF0100F01D1BCEC82
S315000026F0108ABCE8F00F8CF30988064B01229A82F7
S315000027007047FEE7287E0120BC7E01202C7E01203A
S3150000271000ED00E0000D004080B500AF00F030F89D
S3150000272080BD00BF80B483B000AF786039600269B5
S31500002730A2F1400222F007024FF00003136053603B
S315000027409360D36013615361C36893614FF00003D4
S31500002750D361136253629362D36213634FF0FF3304
S31500002760536391634FF08073D36382607B686FF02D
S315000027700202C3F890200C37BD465DF8047B704713
S3150000278080B500AF294B1B680133284A1360284BDC
S315000027901B68002B0BD0264B1B68013B244A136099
S315000027A0234B1B68002B02D1224B01221A60224BBD
S315000027B01B681B68002B03D0204B01221A600EE019
S315000027C01D4B1B6804331C4A13601B4B1A681C4BB9
S315000027D01B689A4203D11B4B1B68174A1360154BA3
S315000027E01B68002B03D1154B1B68002B0BD0134B1A
S315000027F01B68002B01D003F019FF0E4B1B68002B42
S3150000280001D003F0B3FD104B1B68002B0DD00F4B0E
S315000028101A680D4B1B689A4207D00D4B1B68002B9C
S3150000282003D10C4B4FF080525A6080BDD87E0120F8
S31500002830BC7E0120D47E0120347E0120B87E01209A
S31500002840C07E0120C87E01202C7E0120287E01202A
S31500002850247E012000ED00E080B590B000AFF86066
S31500002860B9607A60EFF310833B6272B63B6ABB6372
S31500002870FB689B68002B1AD0FB689B685A1EFB6896
S315000028809A60FB681B697B637B6B1A1DBB681A60C9
S315000028907B6B1A68FB681A617B6BFA681A60002307
S315000028A0FB63BB6BFB61FB6983F3108857E07B68B6
S315000028B0002B4DD02C4B1B683B633B6B2B4A9A6617
S315000028C03B6BFA68DA663B6BBA68DA67FB685B6A89
S315000028D0FB62FB685B6A5A1CFB685A62FB6A002B48
S315000028E009D1FB683A6B1A623B6B3A6B1A673B6B12
S315000028F03A6B5A6711E0FB681B6ABB623B6BBA6AAC
S315000029001A67BB6A5B6F7B623B6B7A6A5A677B6A44
S315000029103A6B1A67BB6A3A6B5A673B6B08221A63B3
S315000029203B6B01229A633B6B7A68DA64104B1B6837
S3150000293001330F4A1360BB6BBB61BB6983F310881D
S31500002940386B03F07DFB3B6BD3F88430FB6306E00A
S315000029501023FB63BB6B7B617B6983F31088FB6B86
S3150000296018464037BD4680BD287E012075290000E7
S31500002970247E012080B58CB000AF7860EFF3108321
S31500002980BB6172B6BB69FB627B68DB6EBB62BB6A0E
S31500002990002B4DD07B689B6E002B49D0BB6A1B6811
S315000029A0274A934244D1BB6A5B6A002B40D07B68BE
S315000029B000229A66BB6A5B6A5A1EBB6A5A62BB6A87
S315000029C05B6A7B627B6A002B03D1BB6A00221A62B8
S315000029D013E07B681B6F3B627B685B6FFB613B6A46
S315000029E0FA695A67FB693A6A1A67BB6A1A6A7B68A8
S315000029F09A4202D1BB6A3A6A1A627B681B6B082B41
S31500002A0016D17B681022C3F884200E4B1B68013355
S31500002A100C4A1360FB6A7B617B6983F310887868D4
S31500002A2003F01AFAEFF310833B6172B63B69FB625F
S31500002A30FB6AFB60FB6883F310883037BD4680BDB8
S31500002A40434F4C42247E012080B58EB000AFF86023
S31500002A50B9607A603B60F8680021302232F006FFE8
S31500002A607B6803339B089B007B603B6C9B089B0049
S31500002A703B64FB68BA685A60FB683A685A61FB684F
S31500002A803A6C9A61FB687A68DA617B6804333A6C5F
S31500002A90B2FBF3F37B6200237B633B68FB627B68DC
S31500002AA00433FA6A1344BB620CE07B6B01337B632D
S31500002AB0FB6ABA6A1A60BB6AFB627B680433FA6A0D
S31500002AC01344BB627A6B7B6A9A42EED37A686FF0E4
S31500002AD003039B1AFA6A1344FB62FB6A00221A601C
S31500002AE0FB687A6B9A60FB687A6BDA607B6B002B0B
S31500002AF038D0FB683A681A61EFF310837B6172B6CF
S31500002B007B693B62FB681B4A1A601B4B1B68002BE8
S31500002B1009D11A4AFB681360FB68FA689A62FB6877
S31500002B20FA68DA6211E0154B1B68FB61FB69DB6A28
S31500002B30BB61FB69FA68DA62BB69FA689A62FB688C
S31500002B40BA69DA62FB68FA699A620B4B1B68013351
S31500002B50094A13603B6A3B613B6983F31088002393
S31500002B603B6301E005233B633B6B18463837BD46A4
S31500002B7080BD00BF434F4C42747D0120807D012003
S31500002B8080B58EB000AF7860EFF31083FB6172B64C
S31500002B90FB69FB627B6800221A603A4B1B68013BAB
S31500002BA0384A1360374B1B68002B03D1364B002283
S31500002BB01A6013E07B689B6ABB627B68DB6A7B6298
S31500002BC0BB6A7A6ADA627B6ABA6A9A622E4B1A68BA
S31500002BD07B689A4202D12C4ABB6A13602B4B1B6856
S31500002BE001332A4A13607B681B6A7B637B68002279
S31500002BF01A627B685B6A3B637B6800225A62FB6AE7
S31500002C00BB61BB6983F3108821E03B6B013B3B63EF
S31500002C10EFF310837B6172B67B69FB627B6B0022EC
S31500002C209A667B6B0122C3F884207B6B1B6F3B6229
S31500002C30164B1B680133154A1360FB6A3B613B69FF
S31500002C4083F31088786B03F007F93B6A7B633B6B71
S31500002C50002BDAD1EFF31083FB6072B6FB68FB62E0
S31500002C600A4B1B68013B094A1360FB6ABB60BB68E1
S31500002C7083F3108803F0BAF8002318463837BD46A8
S31500002C8080BD00BF747D0120807D0120247E01204F
S31500002C9080B58CB000AF7860EFF310833B6172B6FD
S31500002CA03B69FB627B68043BBB62BB6A1B687B6259
S31500002CB07B6A1B6A3B623B6A002B36D07B6A5B6A87
S31500002CC05A1E7B6A5A627B6A5B6AFB61FB69002B50
S31500002CD003D17B6A00221A620EE03B6A1B6FBB615E
S31500002CE07B6ABA691A623B6A5B6F7B61BB697A6908
S31500002CF05A677B69BA691A673B6A00229A663B6A19
S31500002D00DB6F7A681A603B6A0022C3F88420124B94
S31500002D101B680133104A1360FB6AFB60FB6883F390
S31500002D201088386A03F098F810E07B6A1A69BB6A63
S31500002D301A607B6ABA6A1A617B6A9B685A1C7B6A4C
S31500002D409A60FB6ABB60BB6883F310880023184651
S31500002D503037BD4680BD00BF247E012080B592B0CD
S31500002D6000AFF860B9607A603B607B6803339B080C
S31500002D709B007B60EFF310837B6272B67B6A7B6499
S31500002D80494B1B68BB630023FB63FB68BA6B1A6283
S31500002D907B6C3B623B6A83F31088F868796800F0C5
S31500002DA079F97863EFF31083FB6172B6FB697B6494
S31500002DB07B6B002B02D00123FB6306E0FB681A6ADB
S31500002DC0BB6B9A4201D10123FB63FB6B002BDCD06A
S31500002DD07B6B002B0AD0BB687A6B1A607B6CBB617D
S31500002DE0BB6983F3108800233B6457E03B68002BE4
S31500002DF04DD0BB6B2D4A9A66BB6BFA68DA66BB6B25
S31500002E00BA68DA67BB6B7A689A67FB689B6A3B634A
S31500002E10FB689B6A5A1CFB689A623B6B002B09D1C4
S31500002E20FB68BA6B5A62BB6BBA6B1A67BB6BBA6B41
S31500002E305A6711E0FB685B6AFB62BB6BFA6A1A674A
S31500002E40FB6A5B6FBB62BB6BBA6A5A67BB6ABA6BDB
S31500002E501A67FB6ABA6B5A67BB6B09221A63BB6BAC
S31500002E6001229A63BB6B3A68DA64114B1B68013323
S31500002E700F4A13607B6C7B617B6983F31088B86BA8
S31500002E8003F0DEF8BB6BD3F884303B6406E07B6C62
S31500002E903B613B6983F3108810233B643B6C184607
S31500002EA04837BD4680BD00BF287E0120B52E0000F4
S31500002EB0247E012080B58CB000AF7860EFF31083DC
S31500002EC0BB6172B6BB69FB627B68DB6EBB62BB6AC9
S31500002ED0002B4DD07B689B6E002B49D0BB6A1B68CC
S31500002EE0274A934244D1BB6A9B6A002B40D07B6839
S31500002EF000229A66BB6A9B6A5A1EBB6A9A62BB6AC2
S31500002F009B6A7B627B6A002B03D1BB6A00225A62F2
S31500002F1013E07B681B6F3B627B685B6FFB613B6A00
S31500002F20FA695A67FB693A6A1A67BB6A5A6A7B6822
S31500002F309A4202D1BB6A3A6A5A627B681B6B092BBA
S31500002F4016D17B681022C3F884200E4B1B68013310
S31500002F500C4A1360FB6A7B617B6983F3108878688F
S31500002F6002F07AFFEFF310833B6172B63B69FB62B6
S31500002F70FB6AFB60FB6883F310883037BD4680BD73
S31500002F8045545942247E012080B58AB000AFF860CE
S31500002F90B9607A603B60F8680021342232F066FC42
S31500002FA03B689B089B003B60FB68BA685A60FB68FD
S31500002FB07A689A61FB683A68DA61FB687A681A612E
S31500002FC0FB687A685A613B68A3F10802FB689A605D
S31500002FD0FB680222DA607A683B6813447B627B6A8C
S31500002FE0043B7B627B6AFA681A607B6A043B7B62FD
S31500002FF07B6A7A681A607B687A6A1A607B687B6289
S315000030007B6A04337B627B6A1E4A1A60FB68002275
S315000030101A62EFF310837B6172B67B693B62FB68D1
S31500003020194A1A60194B1B68002B09D1184AFB680C
S315000030301360FB68FA68DA62FB68FA681A6311E0E3
S31500003040134B1B68FB61FB691B6BBB61FB69FA6871
S315000030501A63BB69FA68DA62FB68BA691A63FB68C5
S31500003060FA69DA62094B1B680133084A13603B6A46
S315000030703B613B6983F31088002318462837BD4619
S3150000308080BD00BFEEEEFFFF45545942887D01200A
S315000030906C7D012080B491B000AF78603960002368
S315000030A0BB62EFF31083FB6172B6FB69FB637B685F
S315000030B09A683B689A4207D8FB6BBB61BB6983F38E
S315000030C010880023BB63C4E0654B1B687B627B688A
S315000030D07A6A1A627B685B697B637B6BBB637B681E
S315000030E0DB680133FB6200233B63BB6B04331B6865
S315000030F05C4A93423DD1BB6A002B07D17A6BBB6B0E
S315000031009A4201D0BB6B7B630123BB62BB6B1B681E
S315000031103B623A6ABB6BD31A3B633B6B083B3B6330
S315000031203A6B3B689A4200D34BE000233B633B6A11
S3150000313004331B684B4A934211D13B6A1A68BB6B36
S315000031401A607B68DB685A1E7B68DA607B685A699E
S315000031503B6A9A4210D17B68BA6B5A610CE03B6AB3
S315000031601B68BB63FB6A002B06D0FB6A013BFB6254
S3150000317002E0BB6B1B68BB63FB6A002B02D0FB6AD9
S31500003180013BFB62FB6B7B617B6983F31088EFF38A
S3150000319010833B6172B63B69FB637B681A6A7B6A84
S315000031A09A420BD07B685B69BB63BB6B7B637B68B6
S315000031B0DB680133FB627B687A6A1A62FB6A002B62
S315000031C093D13B6B002B3AD03A6B3B68D31A132B47
S315000031D016D93B680833BA6B13443B62BB6B1A685B
S315000031E03B6A1A603B6A04331E4A1A607B68DB68D6
S315000031F05A1C7B68DA60BB6B3A6A1A603B683B63B1
S31500003200BB6B04337A681A607B689A683B6BD31A87
S31500003210A3F108027B689A60BA6B7B6B9A4202D173
S31500003220BB6B1B687B637B687A6B5A61FB6BFB60CD
S31500003230FB6883F31088BB6B0833BB6309E07B68CC
S315000032407A6B5A61FB6BBB60BB6883F31088002303
S31500003250BB63BB6B18464437BD465DF8047B7047BD
S31500003260287E0120EEEEFFFF80B596B000AF7860B5
S3150000327000233B65EFF31083BB6272B6BB6A7B65C6
S315000032807B68BB64BB6C002B1CD0BB6C083BBB646F
S31500003290BB6C04331B686F4A934210D0BB6C5B68EF
S315000032A0FB64FB6C002B02D103233B650CE0FB6C3B
S315000032B01B68694A934207D003233B6504E0032356
S315000032C03B6501E003233B653B6D032B05D17B6D1D
S315000032D07B627B6A83F31088B6E0604B1B687B6475
S315000032E0FB6C7A6C1A62BB6C04335A4A1A60BB6C6C
S315000032F01B683B64FB6C9B68396CBA6C8A1A1A446F
S31500003300FB6C9A60FB6C5A69BB6C9A4202D9FB6CE7
S31500003310BA6C5A61FB6C9B6A002B00F0908081E0CE
S31500003320FB6C5B6AFB63FB6B9B6FBB637B6D3B62FA
S315000033303B6A83F31088F86CB96BFFF7ABFEB86491
S31500003340EFF31083FB6172B6FB697B65FB6C7A6CED
S315000033501A62BB6C002B00D169E0FB6C5A6AFB6BEE
S315000033609A4242D1FB6B9A6FBB6B9A423DD1FB6C82
S315000033709B6A5A1EFB6C9A62FB6C9B6A7B637B6B37
S31500003380002B03D1FB6C00225A620EE0FB6B1B6F15
S315000033903B63FB6C3A6B5A62FB6B5B6FFB623B6B8E
S315000033A0FA6A5A67FB6A3A6B1A67FB6B00229A66DF
S315000033B0FB6BDB6FBA6C1A600023BB64FB6B0022ED
S315000033C0C3F88420264B1B680133254A13607B6DA6
S315000033D0BB61BB6983F31088F86B02F03DFDEFF328
S315000033E010837B6172B67B697B65BB6C002B19D041
S315000033F0BB6C083BBB64BB6C0433164A1A60BB6CDF
S315000034001B683B64FB6C9B68396CBA6C8A1A1A445D
S31500003410FB6C9A60FB6C5A69BB6C9A4202D9FB6CD6
S31500003420BA6C5A61FB6C9B6A002B7FF479AF7B6D9B
S315000034303B613B6983F3108802F0D8FC04E07B6DA6
S31500003440FB60FB6883F310883B6D18465837BD4612
S3150000345080BD00BFEEEEFFFF45545942287E012095
S31500003460247E012080B58CB000AF7860EFF3108326
S315000034707B6172B67B69FB627B68DB6EBB62BB6A93
S31500003480002B53D07B689B6E002B4FD0BB6A1B680A
S315000034902A4A93424AD1BB6A5B69002B46D07B68B5
S315000034A000229A66BB6A5B697B62BB6A1B693B62E8
S315000034B03B6A002B1FD07B6A013B7B62BB6A7A6A40
S315000034C05A617B6A002B03D1BB6A00221A6112E0A3
S315000034D07B681B6FFB617B685B6FBB61FB69BA69CD
S315000034E05A67BB69FA691A673A6A7B689A4202D1D7
S315000034F0BB6AFA691A617B681B6B072B16D17B685E
S315000035000722C3F884200E4B1B6801330C4A136054
S31500003510FB6A3B613B6983F31088786802F09CFC88
S31500003520EFF31083FB6072B6FB68FB62FB6ABB605D
S31500003530BB6883F310883037BD4680BD4E44564481
S31500003540247E012080B588B000AF78603960786845
S315000035500021242232F08AF97B683A685A60EFF338
S3150000356010833B6172B63B69FB617B68184A1A603F
S31500003570184B1B68002B09D1174A7B6813607B68C0
S315000035807A689A617B687A68DA6111E0124B1B6887
S31500003590BB61BB69DB697B61BB697A68DA617B69A0
S315000035A07A689A617B687A69DA617B68BA699A6136
S315000035B0084B1B680133074A1360FB69FB60FB6815
S315000035C083F31088002318462037BD4680BD00BF10
S315000035D04E4456447C7D0120587D012080B58EB036
S315000035E000AF7860EFF31083FB6172B6FB69FB6294
S315000035F07B6800221A603A4B1B68013B384A13600D
S31500003600374B1B68002B03D1364B00221A6013E0A0
S315000036107B689B69BB627B68DB697B62BB6A7A6A93
S31500003620DA617B6ABA6A9A612E4B1A687B689A429B
S3150000363002D12C4ABB6A13602B4B1B6801332A4A02
S3150000364013607B681B697B637B6800221A617B6859
S315000036505B693B637B6800225A61FB6ABB61BB699D
S3150000366083F3108821E03B6B013B3B63EFF3108350
S315000036707B6172B67B69FB627B6B00229A667B6B11
S315000036800122C3F884207B6B1B6F3B62164B1B68C1
S315000036900133154A1360FB6A3B613B6983F310886B
S315000036A0786B02F0D9FB3B6A7B633B6B002BDAD16C
S315000036B0EFF31083FB6072B6FB68FB620A4B1B6874
S315000036C0013B094A1360FB6ABB60BB6883F3108841
S315000036D002F08CFB002318463837BD4680BD00BF7C
S315000036E07C7D0120587D0120247E012080B594B088
S315000036F000AFF860B9607A603B60EFF31083FB615E
S3150000370072B6FB69FB64FB689B687B647B6803F0AD
S315000037100203BB63FB681B6A7B637B6B002B04D0D5
S315000037207B6BDB437A6C13407B64BB6B022B0AD149
S315000037307A6CBB6813403B643A6CBB689A4206D00D
S3150000374000233B6403E07A6CBB6813403B643B6C2C
S31500003750002B29D03B687A6C1A607B6803F0010362
S315000037603B633B6B012B1CD10023FB63FB685B694E
S31500003770002B05D0FB681B69002B01D10123FB63DD
S31500003780FB6B012B06D1FB681A6ABB681A43FB6800
S315000037901A6206E0FB689A68BB68DB431A40FB685E
S315000037A09A600023BB645FE0BB6D002B5AD0334B9D
S315000037B01B68FB62FB6A324A9A66FB6ABA689A67BA
S315000037C0FB6A7A68C3F88020FB6A3A68DA67FB6AA4
S315000037D0FA68DA66FB685B69BB62BB6A002B09D1D3
S315000037E0FB68FA6A1A61FB6AFA6A1A67FB6AFA6A7E
S315000037F05A6711E0FB681B697B62FB6A7A6A1A6783
S315000038007B6A5B6F3B62FB6A3A6A5A673B6AFA6A93
S315000038101A677B6AFA6A5A67FB685B695A1CFB6817
S315000038205A61FB6A07221A63FB6A01229A63FB6AE2
S31500003830BA6DDA64134B1B680133124A1360FB6CD2
S31500003840BB61BB6983F31088F86A02F0F9FBEFF3FA
S3150000385010837B6172B67B69FB64FB6AD3F88430A4
S31500003860BB6401E00723BB64FB6C3B613B6983F3EC
S315000038701088BB6C18465037BD4680BD287E012097
S3150000388065340000247E012080B5A0B000AFF8604A
S31500003890B9607A60EFF31083BB6372B6BB6BFB67EC
S315000038A07B6803F00203002B22D00023BB65FB6874
S315000038B05B69002B05D0FB681B69002B01D1012336
S315000038C0BB65BB6D012B07D1FB681A6ABB68DB437E
S315000038D01A43FB681A6205E0FB689A68BB681A40DF
S315000038E0FB689A60FB6F7B637B6B83F3108884E1D4
S315000038F0FB689A68BB681A43FB689A60FB681B6A98
S31500003900002B06D0FB681A6ABB68DB431A40FB68CB
S315000039101A620023FB65FB685B69BB66FB681B6973
S31500003920002B00F05781BB6E012B5BD1FB681B6936
S31500003930BB67FB689B687B66BB6F9B6F7B65BB6FDA
S31500003940D3F880303B653B6D03F00203FB64FB6CF0
S31500003950022B0AD17A6E7B6D13403B663A6E7B6D05
S315000039609A4206D000233B6603E07A6E7B6D1340D5
S315000039703B663B6E002B00F036810123FB65BB6F77
S31500003980DB6F7A6E1A603B6D03F00103BB64BB6CA0
S31500003990012B06D1FB689A687B6DDB431A40FB68F6
S315000039A09A60FB6800221A61FB6800225A61BB6FAD
S315000039B000229A66BB6F0022C3F88420914B1B68D5
S315000039C00133904A1360FB6F3B633B6B83F31088B4
S315000039D0B86F02F041FAEFF31083FB6272B6FB6A2E
S315000039E0FB6700E1FB681B69FB66FB6EBB67FB6858
S315000039F000221A6100237B6700233B67FB689B68F4
S31500003A007B66804B1B6801337E4A1360FB6FBB628B
S31500003A10BB6A83F31088EFF310837B6272B67B6A0E
S31500003A20FB67FB68DB68002B0CD0FB680022DA60C2
S31500003A30FB6EBB67FB685B69BB66FB689B687A6E5F
S31500003A4013437B66BB6F1B6F7B64BB6F9B6F7B6592
S31500003A50BB6FD3F880303B653B6D03F00203FB641C
S31500003A60FB6C022B0AD17A6E7B6D13403B663A6E75
S31500003A707B6D9A4206D000233B6603E07A6E7B6D2F
S31500003A8013403B66BB6F1B6B072B01D001233B66C4
S31500003A903B6E002B54D00123FB65BB6F1B6B072BC2
S31500003AA018D1BB6FDB6F7A6E1A603B6D03F00103B2
S31500003AB0BB64BB6C012B06D1FB689A687B6DDB434C
S31500003AC01A40FB689A60BB6F00229A66BB6F0022A1
S31500003AD0C3F88420BB6F1A6FBB6F9A4202D10023D2
S31500003AE0FB6612E0BB6F1B6F3B64BB6F5B6FFB63D8
S31500003AF03B6CFA6B5A67FB6B3A6C1A67FA6EBB6FD4
S31500003B009A4202D1BB6F1B6FFB66FB685B695A1E4C
S31500003B10FB685A617B6F002B07D1BB6F7B67BB6F5E
S31500003B203B67BB6F00221A670AE03B6F002B02D08F
S31500003B303B6FBA6F1A67BB6F00221A67BB6F3B6792
S31500003B407B6CBB67BB6E013BBB66BB6E002B7FF419
S31500003B505DAFFB68FA6E1A61FB681B6A002B0AD020
S31500003B60FB689A68FB681B6ADB431A40FB689A602D
S31500003B70FB6800221A62FB6F3B623B6A83F3108884
S31500003B807B6FBB6717E0BB6F1B6F7B64EFF3108324
S31500003B90FB6172B6FB69FB671A4B1B680133194A56
S31500003BA01360FB6FBB61BB6983F31088B86F02F0CB
S31500003BB053F97B6CBB67BB6F002BE4D1EFF310832B
S31500003BC07B6172B67B69FB670E4B1B68013B0D4A36
S31500003BD0136008E0FB685B69002B04D0FB68DB68B8
S31500003BE05A1CFB68DA60FB6F3B613B6983F3108804
S31500003BF0FB6D012B01D102F0F9F80023184680373E
S31500003C00BD4680BD247E012080B500AF01F02CFFAB
S31500003C10144B01221A6002F0D9FD134B00221A60E0
S31500003C20124B00221A60124B00221A60114B00221E
S31500003C301A60114B00221A60104B00221A60104BBA
S31500003C4000221A600F4B00221A600F4B00221A60E6
S31500003C500E4B00221A600E4B00221A600D4B0022FA
S31500003C601A6080BD247E0120687D0120787D0120B8
S31500003C70847D0120647D0120587D01207C7D01200A
S31500003C80807D0120747D01206C7D0120887D0120CE
S31500003C90607D01205C7D012080B500AF0D4B1B6867
S31500003CA013F10F3F07D00B4B4FF0F0321A60FEF7BF
S31500003CB017FCFFF7A9FF074B4FF0F0321A60064BCF
S31500003CC01B68184615F0B2F8024B00221A60FEF780
S31500003CD055FC80BD00000020707D012080B483B0BB
S31500003CE000AF78600C37BD465DF8047B704700BFB7
S31500003CF080B483B000AF78600C37BD465DF8047BB6
S31500003D00704700BF80B58CB000AF7860EFF31083CA
S31500003D10BB6172B6BB69FB627B68DB6EBB62BB6A6A
S31500003D20002B4DD07B689B6E002B49D0BB6A1B686D
S31500003D30274A934244D1BB6ADB69002B40D07B689B
S31500003D4000229A66BB6ADB695A1EBB6ADA61BB6AE5
S31500003D50DB697B627B6A002B03D1BB6A00229A6116
S31500003D6013E07B681B6F3B627B685B6FFB613B6AA2
S31500003D70FA695A67FB693A6A1A67BB6A9A697B6885
S31500003D809A4202D1BB6A3A6A9A617B681B6B0D2B19
S31500003D9016D17B681D22C3F884200E4B1B680133A5
S31500003DA00C4A1360FB6A7B617B6983F31088786831
S31500003DB002F052F8EFF310833B6172B63B69FB6287
S31500003DC0FB6AFB60FB6883F310883037BD4680BD15
S31500003DD04554554D247E012080B588B000AF7860EB
S31500003DE0EFF310837B6172B67B69FB61184B1B682E
S31500003DF00133174A13607B68D3F8A830BB61BB69EF
S31500003E00002B14D0BB6901229A60FB693B613B69B8
S31500003E1083F31088B86900F055FBEFF31083FB605D
S31500003E2072B6FB68FB617B68D3F8A830BB61BB69DF
S31500003E30002BE0D1064B1B68013B054A1360FB696A
S31500003E40BB60BB6883F310882037BD4680BD00BFCA
S31500003E50247E012080B58AB000AFF860B9607A6030
S31500003E60F8680021342231F001FDFB68BA685A6017
S31500003E70FB687A681A61EFF31083BB6172B6BB699F
S31500003E807B62FB68194A1A60194B1A4A1A601A4B68
S31500003E901B68002B09D1194AFB681360FB68FA6896
S31500003EA01A62FB68FA685A6211E0144B1B683B629F
S31500003EB03B6A5B6AFB613B6AFA685A62FB69FA68AD
S31500003EC01A62FB68FA695A62FB683A6A1A620A4B16
S31500003ED01B680133084A13607B6A7B617B6983F345
S31500003EE01088002318462837BD4680BD4554554DD9
S31500003EF00C7E0120D93D00005C7D0120607D012003
S31500003F0080B592B000AF7860EFF31083BB6272B6F3
S31500003F10BB6A7B647B6800221A60454B1B68013BC9
S31500003F20434A1360424B1B68002B03D1414B0022CE
S31500003F301A6013E07B681B6ABB637B685B6A7B6302
S31500003F40BB6B7A6B5A627B6BBA6B1A62394B1A6817
S31500003F507B689A4202D1374ABB6B1360364B1B68AB
S31500003F600133354A13607B689B693B647B6800229A
S31500003F709A617B68DB69FB637B680022DA617B6898
S31500003F80DB683B633B6B002B10D07B6801229A6099
S31500003F907B6C7B627B6A83F31088786800F092FA08
S31500003FA0EFF310833B6272B63B6A7B647B6CFB610A
S31500003FB0FB6983F3108821E0FB6B013BFB63EFF3A6
S31500003FC01083BB6172B6BB697B643B6C00229A6648
S31500003FD03B6C0122C3F884203B6C1B6FFB62164BC3
S31500003FE01B680133144A13607B6C7B617B6983F326
S31500003FF01088386C01F030FFFB6A3B64FB6B002BCA
S31500004000DAD1EFF310833B6172B63B697B640A4BEE
S315000040101B68013B084A13607B6CFB60FB6883F3FB
S31500004020108801F0E3FE002318464837BD4680BDE0
S315000040305C7D0120607D0120247E012080B590B04A
S3150000404000AF78603960EFF31083FB6172B6FB69ED
S31500004050BB63674B1B687B637B689B68002B43D104
S315000040607B6801229A607B687A6BDA607B6B002B37
S3150000407032D07B681B69012B06D17B6BDA6A7B68C1
S315000040805A617B6820229A627B6BD3F8A8303B6327
S315000040903B6B002B0FD03B6B1B6BFB623B6B7A6859
S315000040A01A63FB6A7A68DA627B68FA6A1A637B6863
S315000040B03A6BDA6209E07B6B7A68C3F8A8207B6802
S315000040C07A68DA627B687A681A637B6BD3F8A43005
S315000040D05A1C7B6BC3F8A420BB6BBB61BB6983F323
S315000040E010880023FB637EE07B68DA687B6B9A426C
S315000040F00CD17B689B685A1C7B689A60BB6B7B61A2
S315000041007B6983F310880023FB636CE03B68002B1C
S3150000411062D07B68DB68BB627B6B364A9A667B6BD8
S315000041207A68DA667B68DB69002B09D17B687A6B73
S315000041309A617B6B7A6B1A677B6B7A6B5A6711E0B5
S315000041407B689B697B627B6B7A6A1A677B6A5B6FAB
S315000041503B627B6B3A6A5A673B6A7A6B1A677B6A81
S315000041607A6B5A677B68DB695A1C7B68DA617B6B02
S315000041700D221A637B6B01229A637B6B3A68DA64C1
S315000041801D4B1B6801331C4A1360BB6B3B613B69CB
S3150000419083F310887B681B69012B15D17B689A6AAB
S315000041A07B6BDB6A9A4203D97B6BDA6A7B689A621D
S315000041B0BB6ADA6A7B6BDB6A9A4205D97B6BDB6A80
S315000041C0B86A194600F0C6F8786B01F039FF7B6BC8
S315000041D0D3F88430FB6306E0BB6BFB60FB6883F3BC
S315000041E010881D23FB63FB6B18464037BD4680BD18
S315000041F0287E0120053D0000247E012080B590B078
S3150000420000AF7860EFF31083FB6172B6FB69FB6366
S315000042107B68DB69FB62FB6A012B05D8FB6BBB6124
S31500004220BB6983F310888EE0FB6A022B14D17B688E
S315000042309B693B633B6B1B6F7B627B6ADA6A3B6BFA
S31500004240DB6A9A4202D27B687A6A9A61FB6B7B616F
S315000042507B6983F3108876E07B689B693B633B6BE5
S315000042607B637B6B1B6FBB63394B1B680133384A1F
S3150000427013600023BB62BB6BDA6A7B6BDB6A9A4214
S3150000428001D2BB6B7B63FB6B3B613B6983F310889D
S31500004290EFF31083FB6072B6FB68FB637B689A6979
S315000042A03B6B9A4202D00123BB6206E07B68DA6967
S315000042B0FB6A9A4201D00123BB62BB6A002B03D181
S315000042C0BB6B1B6FBB630CE07B689B693B637B68C6
S315000042D0DB69FB623B6B7B637B6B1B6FBB63002302
S315000042E0BB62BA6B3B6B9A42C5D1194B1B68013B4B
S315000042F0174A13607A6B3B6B9A421DD07B6B1B6F20
S315000043007B627B6B5B6F3B627B6A3A6A5A673B6A8E
S315000043107A6A1A673B6B5B6F3B627B6B3A6B1A6719
S315000043207B6B3A6A5A673B6A7A6B1A673B6B7A6BA6
S315000043305A677B687A6B9A61FB6BBB60BB6883F3D9
S31500004340108801F053FD002318464037BD4680BD56
S31500004350247E012080B58EB000AF78603960EFF31F
S3150000436010837B6272B67B6A7B637B683A68C3F8AC
S31500004370A0207B681B6B002B17D07B683A68DA623B
S315000043807B68D3F89C203B689A4205D27B68D3F8B9
S315000043909C207B68DA6302E07B683A68DA637B6BB1
S315000043A03B623B6A83F3108882E0434B1B683B63A6
S315000043B07B68DB6AFB62414B1B6802333F4A136032
S315000043C07B6803221A637B6801229A637B6800225A
S315000043D0DA647B6BFB61FB6983F31088786801F014
S315000043E02FFEEFF31083BB6172B6BB697B637B68FC
S315000043F03A68DA627B68D3F89C203B689A4205D219
S315000044007B68D3F89C207B68DA6302E07B683A68B5
S31500004410DA637B6B7B617B6983F31088786801F0D4
S315000044201BFDEFF310833B6172B63B697B63224B46
S315000044301B68BB627A68BB6A9A4234D07B681B6B86
S31500004440002B30D17B68DA6ABB6ADB6A9A4211D8E4
S315000044507A683B6B9A4226D1174A7B681360FA6AE0
S315000044603B689A421FD27B68DB6A15497A6841F835
S31500004470232018E07B68DA6B7B68DB6A9A4212D2EB
S315000044807B68DA6BBB6ADB6A9A420CD80A4A7B689D
S315000044901360FA6A3B689A4205D27B68DB6A084970
S315000044A07A6841F823207B6BFB60FB6883F31088F6
S315000044B03837BD4680BD00BF2C7E0120247E0120FA
S315000044C08C7D012080B5A0B000AF786020233B67CB
S315000044D0EFF31083BB6472B6BB6CFB677B689B68AB
S315000044E0002B00F0B4817B68DB68BB66964B1B68CB
S315000044F07B667B68DA687B6E9A420AD0934B1B68B0
S31500004500002B06D1FB6F7B647B6C83F310881E2324
S315000045103B673B6F202B40F0A1817B689B685A1E4E
S315000045207B689A607B689B68002B07D0FB6F3B64B7
S315000045303B6C83F3108800233B678FE1BB6E002B37
S3150000454007D1FB6FFB63FB6B83F3108800233B678C
S3150000455084E1BB6ED3F8A4305A1EBB6EC3F8A42008
S31500004560BB6ED3F8A430002B04D1BB6E0022C3F877
S31500004570A82015E07B68DB6AFB667B681B6B3B66E5
S31500004580FB6E3A6E1A633B6EFA6EDA62BB6ED3F856
S31500004590A8207B689A4203D1BB6EFA6EC3F8A820A6
S315000045A07B689B69002B0DD17B681B69002B09D1A9
S315000045B07B680022DA60FB6FBB63BB6B83F31088FA
S315000045C000233B673B6F202B40F048810023BB67ED
S315000045D0BB6ED3F898307B677B681B69012B33D1A0
S315000045E05A4B1B680133594A1360FB6F7B637B6B25
S315000045F083F31088BB6ED3F8A830FB6616E0FB6E1B
S315000046001B69012B07D1FB6E9A6A7B6F9A4202D215
S31500004610FB6E9B6A7B67FB6EDB6AFB66BB6ED3F841
S31500004620A820FB6E9A4201D10023FB66FB6E002B8D
S31500004630E5D1EFF310833B6372B63B6BFB67434BED
S315000046401B68013B414A13607B68DB69012B1BD960
S315000046507B681B69012B17D13C4B1B6801333B4A16
S315000046601360FB6FFB62FB6A83F310887868FFF7C1
S31500004670C5FDEFF31083BB6272B6BB6AFB67334BB3
S315000046801B68013B314A13607B689B69002B38D15C
S315000046902E4B1B6801332D4A1360FB6F7B627B6ACE
S315000046A083F310887B681B69012B0ED17B6820225F
S315000046B09A627B68DB68DA6A7B6F9A4205D07B6810
S315000046C0DB681846796FFFF745FEEFF310833B6210
S315000046D072B63B6AFB671D4B1B68013B1B4A1360A6
S315000046E07B689B68002B02D17B680022DA60FB6F37
S315000046F0FB61FB6983F3108801F078FB00233B67BD
S31500004700ACE07B689B69BB667B681B69012B09D1A2
S315000047107B68DB68BB67BB6EDA6A7B685A617B685D
S3150000472020229A62BB6ED3F8A430FB65FB6D002B8A
S315000047300ED1BB6E7A68C3F8A8207B687A68DA6205
S315000047407B687A681A6316E0287E0120247E0120A1
S31500004750BB6ED3F8A830FB66FB6E1B6B3B66FB6E2D
S315000047607A681A633B6E7A68DA627B683A6E1A6315
S315000047707B68FA6EDA62FB6D5A1CBB6EC3F8A42026
S315000047807B6801229A607B68BA6EDA607B68DB69B7
S315000047905A1E7B68DA617B68DB69BB65BB6D002BE3
S315000047A003D17B6800229A610EE0BB6E1B6F7B65AE
S315000047B07B687A6D9A61BB6E5B6F3B657B6D3A6D0C
S315000047C05A673B6D7A6D1A67BB6E00229A66BB6E9E
S315000047D00022C3F88420244B1B680133224A13604D
S315000047E0FB6FBB61BB6983F310887B681B69012B78
S315000047F027D17B68DB69002B17D07868FFF7FEFCB2
S31500004800EFF310837B6172B67B69FB677B689B69FC
S31500004810FB64FB6C002B03D0FB6CDA6A7B689A6244
S31500004820FB6F3B613B6983F31088BB6F002B08D09D
S31500004830BB6FDA6A7B6F9A4203D0B86F796FFFF766
S3150000484089FDB86E01F008FB00233B6706E0FB6FAD
S31500004850FB60FB6883F310881E233B673B6F18469B
S315000048608037BD4680BD00BF247E012080B58CB058
S3150000487000AF7860EFF31083BB6172B6BB69FB6271
S315000048807B68DB6EBB62BB6A002B56D07B689B6E77
S31500004890002B52D0BB6A1B682C4A93424DD1BB6A8F
S315000048A0DB6A002B49D07B6800229A66BB6ADB6A0A
S315000048B05A1EBB6ADA62BB6ADB6A7B627B6A002BC2
S315000048C003D1BB6A00229A6213E07B681B6F3B62CE
S315000048D07B685B6FFB613B6AFA695A67FB693A6AF8
S315000048E01A67BB6A9A6A7B689A4202D1BB6A3A6ABD
S315000048F09A627B681B6B052B1FD1BB6A1B69002B59
S3150000490004D07B680B22C3F8842003E07B680A226C
S31500004910C3F884200E4B1B6801330D4A1360FB6AF3
S315000049207B617B6983F31088786801F095FAEFF371
S3150000493010833B6172B63B69FB62FB6AFB60FB68F6
S3150000494083F310883037BD4680BD00BF55455551AD
S31500004950247E012080B58CB000AFF860B9607A6023
S315000049603B60F8680021382230F080FFFB68BA68A7
S315000049705A60FB687A689A607B689B00BA6BB2FBE8
S31500004980F3F3FB62FB6A7A6802FB03F3BB62FB6824
S315000049903A689A61BB6A9B003A681A44FB68DA6116
S315000049A0FB683A681A62FB683A685A62FB68FA6AF8
S315000049B05A61FB68FA6ADA60EFF31083BB6172B67C
S315000049C0BB697B62FB68184A1A60184B1B68002B90
S315000049D009D1174AFB681360FB68FA681A63FB681B
S315000049E0FA685A6311E0124B1B683B623B6A5B6BC9
S315000049F0FB613B6AFA685A63FB69FA681A63FB68EB
S31500004A00FA695A63FB683A6A1A63084B1B680133F2
S31500004A10064A13607B6A7B617B6983F310880023F7
S31500004A2018463037BD4680BD55455551647D012039
S31500004A30847D012080B58CB000AF78600023BB6216
S31500004A400023FB62EFF31083FB6172B6FB693B62E6
S31500004A507B681B69002B23D07B6800221A617B6868
S31500004A60DA687B685A617B689A697B681A627B6838
S31500004A709A697B685A627B68DB6A002B10D07B6878
S31500004A809B6AFB627B68DB6ABB627B6800229A6278
S31500004A907B680022DA62284B1B680133264A1360C2
S31500004AA03B6ABB61BB6983F31088BB6A002B3DD0B0
S31500004AB0FB6A7B6225E0BB6A013BBB627B6A002B1B
S31500004AC000D121E0EFF310837B6172B67B693B6214
S31500004AD07B6A00229A667B6A0022C3F884207B6A7E
S31500004AE01B6F7B62144B1B680133134A13603B6ACE
S31500004AF03B613B6983F310887B6A5B6F184601F064
S31500004B00ABF9BB6A002BD6D1EFF31083FB6072B60C
S31500004B10FB683B62084B1B68013B074A13603B6A14
S31500004B20BB60BB6883F3108801F060F90023184668
S31500004B303037BD4680BD00BF247E012080B592B0CF
S31500004B4000AFF860B9607A600023BB63EFF31083AF
S31500004B503B6272B63B6A7B63FB68DB6A3B63FB685E
S31500004B605B69002B00F0A8803B6B002B4AD1FB68E9
S31500004B701A6AFB689B699A4209D1FB68DA69FB6885
S31500004B809B689B005B421A44FB681A6208E0FB685C
S31500004B901A6AFB689B689B005B421A44FB681A62B0
S31500004BA0FB685B695A1EFB685A61FB681B695A1CE5
S31500004BB0FB681A61BB687B64FB681B6A3B64FB6825
S31500004BC09B68FB633B6C1A1D3A647A6C111D796411
S31500004BD012681A60FB6B012B0ED907E03B6C1A1D9D
S31500004BE03A647A6C111D796412681A60FB6B013B9A
S31500004BF0FB63FB6B002BF1D17B6BFB61FB6983F3E2
S31500004C001088B4E0FB689B6AFB623B6B013B3B632D
S31500004C103B6B002B03D1FB6800229A6212E0FB6A11
S31500004C201A6FFB689A62FB6A1B6FBB62FB68BA6A03
S31500004C309A62FB6A5B6F7B62BB6A7A6A5A677B6AB7
S31500004C40BA6A1A67FB683A6BDA62FB6A00229A66EE
S31500004C50BB687B64FB6ADB6F3B64FB689B68FB633A
S31500004C603B6C1A1D3A647A6C111D796412681A60DD
S31500004C70FB6B012B0ED907E03B6C1A1D3A647A6C6C
S31500004C80111D796412681A60FB6B013BFB63FB6BB9
S31500004C90002BF1D1FB6A0022C3F88420364B1B6837
S31500004CA00133354A13607B6BBB61BB6983F31088A4
S31500004CB0F86A01F0D1F85AE07B68002B50D02F4BF0
S31500004CC01B68FB62FB6A2E4A9A66FB6AFA68DA661A
S31500004CD0FB6ABA68DA67FB6A0122C3F880203B6B7D
S31500004CE0002B09D1FB68FA6A9A62FB6AFA6A1A67AC
S31500004CF0FB6AFA6A5A6714E0FB689B6ABB62FB6A46
S31500004D00BA6A1A67BB6A5B6F7B62FB6A7A6A5A6722
S31500004D107B6AFA6A1A67BB6AFA6A5A67FB68FA6AB2
S31500004D209A623B6B5A1CFB68DA62FB6A05221A63BD
S31500004D30FB6A01229A63FB6A7A68DA640E4B1B6887
S31500004D4001330D4A13607B6B7B617B6983F31088AB
S31500004D50F86A01F075F9FB6AD3F88430BB6306E0A4
S31500004D607B6B3B613B6983F310880B23BB63BB6B97
S31500004D7018464837BD4680BD247E0120287E012086
S31500004D806D48000080B594B000AFF860B9607A60F5
S31500004D9000233B64EFF31083BB6272B6BB6AFB630E
S31500004DA0FB68DB6ABB63FB681B69002B00F0348180
S31500004DB0BB6B002B3CD1FB681B6AFB64BB68BB6406
S31500004DC0FB689B687B64BB6C1A1DBA64FA6C111D88
S31500004DD0F96412681A607B6C012B0ED907E0BB6C74
S31500004DE01A1DBA64FA6C111DF96412681A607B6C9C
S31500004DF0013B7B647B6C002BF1D1FB68DA69FB6CB1
S31500004E009A4202D1FB689B69FB64FB68FA6C1A62E2
S31500004E10FB685B695A1CFB685A61FB681B695A1E72
S31500004E20FB681A61FB6B7B627B6A83F310884BE13C
S31500004E30FB689B6A7B637B6BD3F88030012B52D176
S31500004E407B6BDB6FFB64BB68BB64FB689B687B6446
S31500004E50BB6C1A1DBA64FA6C111DF96412681A60EB
S31500004E607B6C012B0ED907E0BB6C1A1DBA64FA6C79
S31500004E70111DF96412681A607B6C013B7B647B6CC4
S31500004E80002BF1D1BB6B013BBB63BB6B002B03D18A
S31500004E90FB6800229A620EE07B6B1B6F3B63FB682C
S31500004EA03A6B9A627B6B5B6FFB623B6BFA6A5A6783
S31500004EB0FB6A3A6B1A67FB68BA6BDA627B6B002295
S31500004EC09A667B6B0022C3F88420824B1B680133F1
S31500004ED0804A1360FB6B3B623B6A83F31088786BF6
S31500004EE000F0BAFFF0E0FB681B6AFB64BB68BB64BA
S31500004EF0FB689B687B64BB6C1A1DBA64FA6C111D57
S31500004F00F96412681A607B6C012B0ED907E0BB6C42
S31500004F101A1DBA64FA6C111DF96412681A607B6C6A
S31500004F20013B7B647B6C002BF1D1FB68DA69FB6C7F
S31500004F309A4202D1FB689B69FB64FB68FA6C1A62B1
S31500004F40644B1B680133634A1360624B1B68013B69
S31500004F50604A13607B6BDB6FFB64FB685B6ABB6458
S31500004F60FB689B687B64BB6C1A1DBA64FA6C111DE6
S31500004F70F96412681A607B6C012B0ED907E0BB6CD2
S31500004F801A1DBA64FA6C111DF96412681A607B6CFA
S31500004F90013B7B647B6C002BF1D1FB68DA69BB6C4F
S31500004FA09A4202D1FB689B69BB64FB68BA6C5A6281
S31500004FB0FB689B6A7B63BB6B013BBB63BB6B002BD4
S31500004FC003D1FB6800229A620EE07B6B1B6F3B638A
S31500004FD0FB683A6B9A627B6B5B6FFB623B6BFA6AB0
S31500004FE05A67FB6A3A6B1A67FB68BA6BDA627B6BC5
S31500004FF000229A667B6B0022C3F88420354B1B681F
S315000050000133344A1360FB6BFB61FB6983F3108841
S31500005010786B00F021FF57E07B68002B4DD02E4BBC
S315000050201B687B637B6B2D4A9A667B6BFA68DA6634
S315000050307B6BBA68DA677B6B0022C3F88020BB6B98
S31500005040002B09D1FB687A6B9A627B6B7A6B1A67C5
S315000050507B6B7A6B5A6711E0FB689B6A3B637B6BE1
S315000050603A6B1A673B6B5B6FFB627B6BFA6A5A673C
S31500005070FB6A7A6B1A673B6B7A6B5A67BB6B5A1C77
S31500005080FB68DA627B6B05221A637B6B01229A63EB
S315000050907B6B7A68DA640F4B1B6801330D4A136029
S315000050A0FB6BBB61BB6983F31088786B00F0C8FFAC
S315000050B07B6BD3F884303B6406E0FB6B7B617B69DA
S315000050C083F310880A233B643B6C18465037BD4671
S315000050D080BD00BF247E0120287E01206D4800008F
S315000050E080B592B000AFF860B9607A600023BB6308
S315000050F0EFF310833B6272B63B6A7B63FB68DB6A45
S315000051003B63FB685B69002B00F09A803B6B002BCE
S315000051103CD1FB685B695A1EFB685A61FB681B69D8
S315000051205A1CFB681A61BB687B64FB685B6A3B645C
S31500005130FB689B68FB633B6C1A1D3A647A6C111D15
S31500005140796412681A60FB6B012B0ED907E03B6C81
S315000051501A1D3A647A6C111D796412681A60FB6B29
S31500005160013BFB63FB6B002BF1D1FB68DA693B6CFF
S315000051709A4202D1FB689B693B64FB683A6C5A62AF
S315000051807B6BFB61FB6983F31088B1E0FB689B6A6C
S31500005190FB623B6B013B3B633B6B002B03D1FB6824
S315000051A000229A6212E0FB6A1A6FFB689A62FB6A37
S315000051B01B6FBB62FB68BA6A9A62FB6A5B6F7B62B3
S315000051C0BB6A7A6A5A677B6ABA6A1A67FB683A6B7D
S315000051D0DA62FB6A00229A66BB687B64FB6ADB6F55
S315000051E03B64FB689B68FB633B6C1A1D3A647A6CF4
S315000051F0111D796412681A60FB6B012B0ED907E04A
S315000052003B6C1A1D3A647A6C111D796412681A6037
S31500005210FB6B013BFB63FB6B002BF1D1FB6A0022AE
S31500005220C3F88420354B1B680133344A13607B6B0B
S31500005230BB61BB6983F31088F86A00F00DFE57E086
S315000052407B68002B4DD02E4B1B68FB62FB6A2D4AF8
S315000052509A66FB6AFA68DA66FB6ABA68DA67FB6A14
S315000052600022C3F880203B6B002B09D1FB68FA6A49
S315000052709A62FB6AFA6A1A67FB6AFA6A5A6711E067
S31500005280FB689B6ABB62FB6ABA6A1A67BB6A5B6F9A
S315000052907B62FB6A7A6A5A677B6AFA6A1A67BB6A32
S315000052A0FA6A5A673B6B5A1CFB68DA62FB6A05228C
S315000052B01A63FB6A01229A63FB6A7A68DA640F4B07
S315000052C01B6801330D4A13607B6B7B617B6983F33B
S315000052D01088F86A00F0B4FEFB6AD3F88430BB632A
S315000052E006E07B6B3B613B6983F310880B23BB6352
S315000052F0BB6B18464837BD4680BD00BF247E0120E3
S31500005300287E01206D48000080B58CB000AF786023
S3150000531039600023FB62EFF310837B6172B67B6911
S31500005320BB627B681B697B627B6A002B19D17B6839
S315000053309A683B689A4207D3BB6A3B613B6983F331
S3150000534010882123FB623FE07B689B685A1C7B68C0
S315000053509A60BB6AFB60FB6883F310880023FB62DC
S3150000536032E07B68DB683B627B6A013B7B627B6A7F
S31500005370002B03D17B680022DA600EE03B6A1B6FCC
S31500005380FB617B68FA69DA603B6A5B6FBB61FB694C
S31500005390BA695A67BB69FA691A677B687A6A1A61D9
S315000053A03B6A00229A663B6A0022C3F88420094BB6
S315000053B01B680133074A1360BB6ABB60BB6883F393
S315000053C01088386A00F048FDFB6A18463037BD463B
S315000053D080BD00BF247E012080B58CB000AF786010
S315000053E0EFF31083BB6172B6BB69FB627B68DB6E51
S315000053F0BB62BB6A002B4DD07B689B6E002B49D0ED
S31500005400BB6A1B68274A934244D1BB6A1B69002BBF
S3150000541040D07B6800229A66BB6A1B695A1EBB6A2B
S315000054201A61BB6A1B697B627B6A002B03D1BB6A6C
S315000054300022DA6013E07B681B6F3B627B685B6F60
S31500005440FB613B6AFA695A67FB693A6A1A67BB6A83
S31500005450DA687B689A4202D1BB6A3A6ADA607B688C
S315000054601B6B062B16D17B680D22C3F884200E4BCE
S315000054701B6801330C4A1360FB6A7B617B6983F30B
S315000054801088786800F0E8FCEFF310833B6172B691
S315000054903B69FB62FB6AFB60FB6883F3108830376D
S315000054A0BD4680BD414D4553247E012080B58AB05E
S315000054B000AFF860B9607A60F86800211C2230F00D
S315000054C0D5F9FB68BA685A60FB687A689A60EFF3A8
S315000054D01083BB6172B6BB697B62FB68184A1A60AF
S315000054E0184B1B68002B09D1174AFB681360FB6831
S315000054F0FA685A61FB68FA689A6111E0124B1B68F8
S315000055003B623B6A9B69FB613B6AFA689A61FB698D
S31500005510FA685A61FB68FA699A61FB683A6A5A61E5
S31500005520084B1B680133074A13607B6A7B617B6902
S3150000553083F31088002318462837BD4680BD00BF78
S31500005540414D4553787D0120687D012080B58EB0A0
S3150000555000AF7860EFF31083FB6172B6FB69FB6204
S315000055607B6800221A603A4B1B68013B384A13607D
S31500005570374B1B68002B03D1364B00221A6013E011
S315000055807B685B69BB627B689B697B62BB6A7A6A84
S315000055909A617B6ABA6A5A612E4B1A687B689A428C
S315000055A002D12C4ABB6A13602B4B1B6801332A4A73
S315000055B013607B68DB687B637B680022DA607B684C
S315000055C01B693B637B6800221A61FB6ABB61BB698E
S315000055D083F3108821E03B6B013B3B63EFF31083C1
S315000055E07B6172B67B69FB627B6B00229A667B6B82
S315000055F00122C3F884207B6B1B6F3B62164B1B6832
S315000056000133154A1360FB6A3B613B6983F31088DB
S31500005610786B00F021FC3B6A7B633B6B002BDAD195
S31500005620EFF31083FB6072B6FB68FB620A4B1B68E4
S31500005630013B094A1360FB6ABB60BB6883F31088B1
S3150000564000F0D4FB002318463837BD4680BD00BFA6
S31500005650787D0120687D0120247E012080B58CB0F4
S3150000566000AF786039600023FB62EFF31083BB6103
S3150000567072B6BB69BB627B689B68002B0AD07B68ED
S315000056809B685A1E7B689A60BB6A7B617B6983F361
S31500005690108852E03B68002B48D02A4B1B687B627F
S315000056A07B6A294A9A667B6A7A68DA667B681B692E
S315000056B0002B09D17B687A6ADA607B6A7A6A1A6794
S315000056C07B6A7A6A5A6711E07B68DB683B627B6AB1
S315000056D03A6A1A673B6A5B6FFB617B6AFA695A67CB
S315000056E0FB697A6A1A673B6A7A6A5A677B681B693A
S315000056F05A1C7B681A617B6A06221A637B6A01223E
S315000057009A637B6A3A68DA64104B1B6801330F4A66
S315000057101360BB6A3B613B6983F31088786A00F0CB
S315000057208FFC7B6AD3F88430FB6206E0BB6AFB60C1
S31500005730FB6883F310880D23FB62FB6A184630373B
S31500005740BD4680BD287E0120D9530000247E01205D
S3150000575080B58AB000AF7860EFF310833B6172B614
S315000057603B697B627B681B693B623B6A002B0AD103
S315000057707B689B685A1C7B689A607B6AFB60FB6847
S3150000578083F3108832E07B68DB68FB613B6A013B90
S315000057903B623B6A002B03D17B680022DA600EE095
S315000057A0FB691B6FBB617B68BA69DA60FB695B6F7B
S315000057B07B61BB697A695A677B69BA691A677B68D4
S315000057C03A6A1A61FB6900229A66FB690022C3F8ED
S315000057D08420094B1B680133074A13607B6ABB6050
S315000057E0BB6883F31088F86900F036FB002318467F
